:020000001006E8
:0200010096A5C2
:02000200CD60CF
:02000300BD0737
:0200040078C0C2
:02000500A80051
:02000600C870C0
:02000700794638
:02000800A9004D
:020009007A0477
:02000A00AA004A
:02000B009AFF5A
:02000C008A0761
:02000D000000F1
:02000E000000F0
:02000F0071007E
:02001000910B52
:02001100F100FC
:020012000000EC
:020013000000EB
:0200140099FF52
:02001500890759
:020016000000E8
:020017000000E7
:02001800710075
:0200190091094B
:02001A00F100F3
:02001B000000E3
:02001C000000E2
:02001D0078C0A9
:02001E00A80137
:02001F00B80621
:020020000000DE
:02002100CD60B0
:02002200BD0718
:020023000000DB
:02002400970142
:0200250078C0A1
:02002600A80030
:02002700C8709F
:02002800794617
:02002900A9002C
:02002A007A0456
:02002B00AA0029
:02002C009AFF39
:02002D008A0740
:02002E000000D0
:02002F000000CF
:0200300071005D
:02003100912C10
:02003200F100DB
:020033000000CB
:020034000000CA
:0200350099FF31
:02003600890738
:02003700890737
:020038000000C6
:02003900710054
:02003A00912A09
:02003B00F100D2
:02003C000000C2
:02003D000000C1
:02003E007880C8
:02003F00A80017
:02004000B80600
:020041000000BD
:0200420078C084
:02004300A80013
:02004400C86092
:02004500710048
:020046009145E2
:02004700F100C6
:020048000000B6
:020049000000B5
:02004A000000B4
:00000001FF
